{
  "_format": "hh3-artifact-1",
  "contractName": "RemitArc",
  "sourceName": "contracts/RemitArc.sol",
  "abi": [
    {
      "inputs": [
        {
          "internalType": "address",
          "name": "_usdc",
          "type": "address"
        },
        {
          "internalType": "address",
          "name": "_feeRecipient",
          "type": "address"
        }
      ],
      "stateMutability": "nonpayable",
      "type": "constructor"
    },
    {
      "inputs": [
        {
          "internalType": "address",
          "name": "owner",
          "type": "address"
        }
      ],
      "name": "OwnableInvalidOwner",
      "type": "error"
    },
    {
      "inputs": [
        {
          "internalType": "address",
          "name": "account",
          "type": "address"
        }
      ],
      "name": "OwnableUnauthorizedAccount",
      "type": "error"
    },
    {
      "inputs": [],
      "name": "ReentrancyGuardReentrantCall",
      "type": "error"
    },
    {
      "anonymous": false,
      "inputs": [
        {
          "indexed": false,
          "internalType": "address",
          "name": "newRecipient",
          "type": "address"
        }
      ],
      "name": "FeeRecipientUpdated",
      "type": "event"
    },
    {
      "anonymous": false,
      "inputs": [
        {
          "indexed": false,
          "internalType": "uint256",
          "name": "newFeeBps",
          "type": "uint256"
        }
      ],
      "name": "FeeUpdated",
      "type": "event"
    },
    {
      "anonymous": false,
      "inputs": [
        {
          "indexed": true,
          "internalType": "address",
          "name": "previousOwner",
          "type": "address"
        },
        {
          "indexed": true,
          "internalType": "address",
          "name": "newOwner",
          "type": "address"
        }
      ],
      "name": "OwnershipTransferred",
      "type": "event"
    },
    {
      "anonymous": false,
      "inputs": [
        {
          "indexed": true,
          "internalType": "uint256",
          "name": "id",
          "type": "uint256"
        },
        {
          "indexed": true,
          "internalType": "address",
          "name": "sender",
          "type": "address"
        },
        {
          "indexed": false,
          "internalType": "string",
          "name": "recipientName",
          "type": "string"
        },
        {
          "indexed": false,
          "internalType": "string",
          "name": "destinationCountry",
          "type": "string"
        },
        {
          "indexed": false,
          "internalType": "uint256",
          "name": "usdcAmount",
          "type": "uint256"
        },
        {
          "indexed": false,
          "internalType": "uint256",
          "name": "feeAmount",
          "type": "uint256"
        },
        {
          "indexed": false,
          "internalType": "uint256",
          "name": "timestamp",
          "type": "uint256"
        }
      ],
      "name": "TransferInitiated",
      "type": "event"
    },
    {
      "anonymous": false,
      "inputs": [
        {
          "indexed": true,
          "internalType": "uint256",
          "name": "id",
          "type": "uint256"
        },
        {
          "indexed": false,
          "internalType": "bytes32",
          "name": "cctpMessageHash",
          "type": "bytes32"
        }
      ],
      "name": "TransferSettled",
      "type": "event"
    },
    {
      "inputs": [],
      "name": "MAX_FEE_BPS",
      "outputs": [
        {
          "internalType": "uint256",
          "name": "",
          "type": "uint256"
        }
      ],
      "stateMutability": "view",
      "type": "function"
    },
    {
      "inputs": [],
      "name": "feeBps",
      "outputs": [
        {
          "internalType": "uint256",
          "name": "",
          "type": "uint256"
        }
      ],
      "stateMutability": "view",
      "type": "function"
    },
    {
      "inputs": [],
      "name": "feeRecipient",
      "outputs": [
        {
          "internalType": "address",
          "name": "",
          "type": "address"
        }
      ],
      "stateMutability": "view",
      "type": "function"
    },
    {
      "inputs": [
        {
          "internalType": "address",
          "name": "sender",
          "type": "address"
        }
      ],
      "name": "getSenderTransferCount",
      "outputs": [
        {
          "internalType": "uint256",
          "name": "",
          "type": "uint256"
        }
      ],
      "stateMutability": "view",
      "type": "function"
    },
    {
      "inputs": [
        {
          "internalType": "address",
          "name": "sender",
          "type": "address"
        }
      ],
      "name": "getSenderTransfers",
      "outputs": [
        {
          "internalType": "uint256[]",
          "name": "",
          "type": "uint256[]"
        }
      ],
      "stateMutability": "view",
      "type": "function"
    },
    {
      "inputs": [
        {
          "internalType": "uint256",
          "name": "id",
          "type": "uint256"
        }
      ],
      "name": "getTransfer",
      "outputs": [
        {
          "components": [
            {
              "internalType": "address",
              "name": "sender",
              "type": "address"
            },
            {
              "internalType": "string",
              "name": "recipientName",
              "type": "string"
            },
            {
              "internalType": "string",
              "name": "destinationCountry",
              "type": "string"
            },
            {
              "internalType": "uint256",
              "name": "usdcAmount",
              "type": "uint256"
            },
            {
              "internalType": "uint256",
              "name": "feeAmount",
              "type": "uint256"
            },
            {
              "internalType": "uint256",
              "name": "timestamp",
              "type": "uint256"
            },
            {
              "internalType": "bytes32",
              "name": "cctpMessageHash",
              "type": "bytes32"
            },
            {
              "internalType": "bool",
              "name": "settled",
              "type": "bool"
            }
          ],
          "internalType": "struct RemitArc.Transfer",
          "name": "",
          "type": "tuple"
        }
      ],
      "stateMutability": "view",
      "type": "function"
    },
    {
      "inputs": [
        {
          "internalType": "string",
          "name": "recipientName",
          "type": "string"
        },
        {
          "internalType": "string",
          "name": "destinationCountry",
          "type": "string"
        },
        {
          "internalType": "uint256",
          "name": "usdcAmount",
          "type": "uint256"
        }
      ],
      "name": "initiateTransfer",
      "outputs": [
        {
          "internalType": "uint256",
          "name": "transferId",
          "type": "uint256"
        }
      ],
      "stateMutability": "nonpayable",
      "type": "function"
    },
    {
      "inputs": [
        {
          "internalType": "uint256",
          "name": "transferId",
          "type": "uint256"
        },
        {
          "internalType": "bytes32",
          "name": "cctpMessageHash",
          "type": "bytes32"
        }
      ],
      "name": "markSettled",
      "outputs": [],
      "stateMutability": "nonpayable",
      "type": "function"
    },
    {
      "inputs": [],
      "name": "owner",
      "outputs": [
        {
          "internalType": "address",
          "name": "",
          "type": "address"
        }
      ],
      "stateMutability": "view",
      "type": "function"
    },
    {
      "inputs": [],
      "name": "renounceOwnership",
      "outputs": [],
      "stateMutability": "nonpayable",
      "type": "function"
    },
    {
      "inputs": [
        {
          "internalType": "address",
          "name": "",
          "type": "address"
        },
        {
          "internalType": "uint256",
          "name": "",
          "type": "uint256"
        }
      ],
      "name": "senderTransfers",
      "outputs": [
        {
          "internalType": "uint256",
          "name": "",
          "type": "uint256"
        }
      ],
      "stateMutability": "view",
      "type": "function"
    },
    {
      "inputs": [
        {
          "internalType": "uint256",
          "name": "newFeeBps",
          "type": "uint256"
        }
      ],
      "name": "setFeeBps",
      "outputs": [],
      "stateMutability": "nonpayable",
      "type": "function"
    },
    {
      "inputs": [
        {
          "internalType": "address",
          "name": "newRecipient",
          "type": "address"
        }
      ],
      "name": "setFeeRecipient",
      "outputs": [],
      "stateMutability": "nonpayable",
      "type": "function"
    },
    {
      "inputs": [],
      "name": "totalVolume",
      "outputs": [
        {
          "internalType": "uint256",
          "name": "",
          "type": "uint256"
        }
      ],
      "stateMutability": "view",
      "type": "function"
    },
    {
      "inputs": [],
      "name": "transferCount",
      "outputs": [
        {
          "internalType": "uint256",
          "name": "",
          "type": "uint256"
        }
      ],
      "stateMutability": "view",
      "type": "function"
    },
    {
      "inputs": [
        {
          "internalType": "address",
          "name": "newOwner",
          "type": "address"
        }
      ],
      "name": "transferOwnership",
      "outputs": [],
      "stateMutability": "nonpayable",
      "type": "function"
    },
    {
      "inputs": [
        {
          "internalType": "uint256",
          "name": "",
          "type": "uint256"
        }
      ],
      "name": "transfers",
      "outputs": [
        {
          "internalType": "address",
          "name": "sender",
          "type": "address"
        },
        {
          "internalType": "string",
          "name": "recipientName",
          "type": "string"
        },
        {
          "internalType": "string",
          "name": "destinationCountry",
          "type": "string"
        },
        {
          "internalType": "uint256",
          "name": "usdcAmount",
          "type": "uint256"
        },
        {
          "internalType": "uint256",
          "name": "feeAmount",
          "type": "uint256"
        },
        {
          "internalType": "uint256",
          "name": "timestamp",
          "type": "uint256"
        },
        {
          "internalType": "bytes32",
          "name": "cctpMessageHash",
          "type": "bytes32"
        },
        {
          "internalType": "bool",
          "name": "settled",
          "type": "bool"
        }
      ],
      "stateMutability": "view",
      "type": "function"
    },
    {
      "inputs": [],
      "name": "usdc",
      "outputs": [
        {
          "internalType": "contract IERC20",
          "name": "",
          "type": "address"
        }
      ],
      "stateMutability": "view",
      "type": "function"
    },
    {
      "inputs": [
        {
          "internalType": "uint256",
          "name": "amount",
          "type": "uint256"
        }
      ],
      "name": "withdrawUSDC",
      "outputs": [],
      "stateMutability": "nonpayable",
      "type": "function"
    }
  ],
  "bytecode": "0x60a0604052601e60025534801562000015575f80fd5b5060405162001741380380620017418339810160408190526200003891620001d3565b33806200005f57604051631e4fbdf760e01b81525f60048201526024015b60405180910390fd5b6200006a8162000168565b5060017f9b779b17422d0df92223018b32b4d1fa46e071723d6817e2486d003becc55f00556001600160a01b038216620000e75760405162461bcd60e51b815260206004820152601b60248201527f52656d69744172633a207a65726f205553444320616464726573730000000000604482015260640162000056565b6001600160a01b0381166200013f5760405162461bcd60e51b815260206004820152601c60248201527f52656d69744172633a207a65726f2066656520726563697069656e7400000000604482015260640162000056565b6001600160a01b03918216608052600180546001600160a01b0319169190921617905562000209565b5f80546001600160a01b038381166001600160a01b0319831681178455604051919092169283917f8be0079c531659141344cd1fd0a4f28419497f9722a3daafe3b4186f6b6457e09190a35050565b80516001600160a01b0381168114620001ce575f80fd5b919050565b5f8060408385031215620001e5575f80fd5b620001f083620001b7565b91506200020060208401620001b7565b90509250929050565b60805161150a620002375f395f8181610154015281816104410152818161052e0152610d1c015261150a5ff3fe608060405234801561000f575f80fd5b506004361061011c575f3560e01c80638da5cb5b116100a9578063d55be8c61161006e578063d55be8c61461028c578063db81f99b14610294578063e3d33fc9146102a7578063e74b981b146102b0578063f2fde38b146102c3575f80fd5b80638da5cb5b146102025780639377d711146102125780639c51d4a114610239578063a57c8bb014610259578063c16fe9071461026c575f80fd5b80635f81a57c116100ef5780635f81a57c146101a157806361a29380146101aa578063715018a6146101bd57806372c27b62146101c757806383943a08146101da575f80fd5b806324a9d853146101205780632bbdcb4e1461013c5780633e413bee1461014f578063469048401461018e575b5f80fd5b61012960025481565b6040519081526020015b60405180910390f35b61012961014a366004610fc2565b6102d6565b6101767f000000000000000000000000000000000000000000000000000000000000000081565b6040516001600160a01b039091168152602001610133565b600154610176906001600160a01b031681565b61012960045481565b6101296101b836600461102f565b610301565b6101c56107f9565b005b6101c56101d536600461109d565b61080c565b6101296101e83660046110b4565b6001600160a01b03165f9081526006602052604090205490565b5f546001600160a01b0316610176565b61022561022036600461109d565b61089a565b604051610133989796959493929190611117565b61024c6102473660046110b4565b6109f4565b604051610133919061117d565b6101c56102673660046111c0565b610a5d565b61027f61027a36600461109d565b610b1e565b60405161013391906111e0565b61012960c881565b6101c56102a236600461109d565b610cf8565b61012960035481565b6101c56102be3660046110b4565b610ddd565b6101c56102d13660046110b4565b610e82565b6006602052815f5260405f2081815481106102ef575f80fd5b905f5260205f20015f91509150505481565b5f61030a610ebc565b5f82116103565760405162461bcd60e51b815260206004820152601560248201527414995b5a5d105c98ce881e995c9bc8185b5bdd5b9d605a1b60448201526064015b60405180910390fd5b846103a35760405162461bcd60e51b815260206004820152601960248201527f52656d69744172633a20656d70747920726563697069656e7400000000000000604482015260640161034d565b600283146103f35760405162461bcd60e51b815260206004820152601e60248201527f52656d69744172633a20696e76616c696420636f756e74727920636f64650000604482015260640161034d565b5f61271060025484610405919061128a565b61040f91906112a7565b90505f61041c82856112c6565b6040516323b872dd60e01b8152336004820152306024820152604481018290529091507f00000000000000000000000000000000000000000000000000000000000000006001600160a01b0316906323b872dd906064016020604051808303815f875af115801561048f573d5f803e3d5ffd5b505050506040513d601f19601f820116820180604052508101906104b391906112d9565b6104ff5760405162461bcd60e51b815260206004820152601e60248201527f52656d69744172633a2055534443207472616e73666572206661696c65640000604482015260640161034d565b81156105e65760015460405163a9059cbb60e01b81526001600160a01b039182166004820152602481018490527f00000000000000000000000000000000000000000000000000000000000000009091169063a9059cbb906044016020604051808303815f875af1158015610576573d5f803e3d5ffd5b505050506040513d601f19601f8201168201806040525081019061059a91906112d9565b6105e65760405162461bcd60e51b815260206004820152601d60248201527f52656d69744172633a20666565207472616e73666572206661696c6564000000604482015260640161034d565b60038054905f6105f5836112f8565b919050559250604051806101000160405280336001600160a01b0316815260200189898080601f0160208091040260200160405190810160405280939291908181526020018383808284375f92019190915250505090825250604080516020601f8a01819004810282018101909252888152918101919089908990819084018382808284375f920182905250938552505050602080830188905260408084018790524260608501526080840183905260a090930182905286825260058152919020825181546001600160a01b0319166001600160a01b039091161781559082015160018201906106e590826113aa565b50604082015160028201906106fa90826113aa565b5060608201516003820155608082015160048083019190915560a0830151600583015560c083015160068084019190915560e0909301516007909201805460ff191692151592909217909155335f908152602092835260408120805460018101825590825292812090920185905580548692906107789084906112c6565b9091555050604051339084907ff96cb2b5e316685cdfb8851d728307e02c38eeed99002bd265e17464eecc0d8e906107bd908c908c908c908c908c908b90429061148e565b60405180910390a350506107f060017f9b779b17422d0df92223018b32b4d1fa46e071723d6817e2486d003becc55f0055565b95945050505050565b610801610eea565b61080a5f610f16565b565b610814610eea565b60c881111561085e5760405162461bcd60e51b81526020600482015260166024820152750a4cadad2e882e4c67440cccaca40e8dede40d0d2ced60531b604482015260640161034d565b60028190556040518181527f8c4d35e54a3f2ef1134138fd8ea3daee6a3c89e10d2665996babdf70261e2c76906020015b60405180910390a150565b60056020525f9081526040902080546001820180546001600160a01b0390921692916108c590611324565b80601f01602080910402602001604051908101604052809291908181526020018280546108f190611324565b801561093c5780601f106109135761010080835404028352916020019161093c565b820191905f5260205f20905b81548152906001019060200180831161091f57829003601f168201915b50505050509080600201805461095190611324565b80601f016020809104026020016040519081016040528092919081815260200182805461097d90611324565b80156109c85780601f1061099f576101008083540402835291602001916109c8565b820191905f5260205f20905b8154815290600101906020018083116109ab57829003601f168201915b505050600384015460048501546005860154600687015460079097015495969295919450925060ff1688565b6001600160a01b0381165f90815260066020908152604091829020805483518184028101840190945280845260609392830182828015610a5157602002820191905f5260205f20905b815481526020019060010190808311610a3d575b50505050509050919050565b610a65610eea565b5f828152600560205260409020600781015460ff1615610ac75760405162461bcd60e51b815260206004820152601960248201527f52656d69744172633a20616c726561647920736574746c656400000000000000604482015260640161034d565b60078101805460ff191660011790556006810182905560405183907f7ab6c971e3fb36e46e16aa39776ee744f36ae98d1ffae953c96853511b6d938890610b119085815260200190565b60405180910390a2505050565b610b6e6040518061010001604052805f6001600160a01b0316815260200160608152602001606081526020015f81526020015f81526020015f81526020015f80191681526020015f151581525090565b5f828152600560209081526040918290208251610100810190935280546001600160a01b031683526001810180549192840191610baa90611324565b80601f0160208091040260200160405190810160405280929190818152602001828054610bd690611324565b8015610c215780601f10610bf857610100808354040283529160200191610c21565b820191905f5260205f20905b815481529060010190602001808311610c0457829003601f168201915b50505050508152602001600282018054610c3a90611324565b80601f0160208091040260200160405190810160405280929190818152602001828054610c6690611324565b8015610cb15780601f10610c8857610100808354040283529160200191610cb1565b820191905f5260205f20905b815481529060010190602001808311610c9457829003601f168201915b50505091835250506003820154602082015260048201546040820152600582015460608201526006820154608082015260079091015460ff16151560a09091015292915050565b610d00610eea565b60405163a9059cbb60e01b8152336004820152602481018290527f00000000000000000000000000000000000000000000000000000000000000006001600160a01b03169063a9059cbb906044016020604051808303815f875af1158015610d6a573d5f803e3d5ffd5b505050506040513d601f19601f82011682018060405250810190610d8e91906112d9565b610dda5760405162461bcd60e51b815260206004820152601960248201527f52656d69744172633a207769746864726177206661696c656400000000000000604482015260640161034d565b50565b610de5610eea565b6001600160a01b038116610e345760405162461bcd60e51b815260206004820152601660248201527552656d69744172633a207a65726f206164647265737360501b604482015260640161034d565b600180546001600160a01b0319166001600160a01b0383169081179091556040519081527f7a7b5a0a132f9e0581eb8527f66eae9ee89c2a3e79d4ac7e41a1f1f4d48a7fc29060200161088f565b610e8a610eea565b6001600160a01b038116610eb357604051631e4fbdf760e01b81525f600482015260240161034d565b610dda81610f16565b610ec4610f65565b60027f9b779b17422d0df92223018b32b4d1fa46e071723d6817e2486d003becc55f0055565b5f546001600160a01b0316331461080a5760405163118cdaa760e01b815233600482015260240161034d565b5f80546001600160a01b038381166001600160a01b0319831681178455604051919092169283917f8be0079c531659141344cd1fd0a4f28419497f9722a3daafe3b4186f6b6457e09190a35050565b7f9b779b17422d0df92223018b32b4d1fa46e071723d6817e2486d003becc55f005460020361080a57604051633ee5aeb560e01b815260040160405180910390fd5b80356001600160a01b0381168114610fbd575f80fd5b919050565b5f8060408385031215610fd3575f80fd5b610fdc83610fa7565b946020939093013593505050565b5f8083601f840112610ffa575f80fd5b50813567ffffffffffffffff811115611011575f80fd5b602083019150836020828501011115611028575f80fd5b9250929050565b5f805f805f60608688031215611043575f80fd5b853567ffffffffffffffff8082111561105a575f80fd5b61106689838a01610fea565b9097509550602088013591508082111561107e575f80fd5b5061108b88828901610fea565b96999598509660400135949350505050565b5f602082840312156110ad575f80fd5b5035919050565b5f602082840312156110c4575f80fd5b6110cd82610fa7565b9392505050565b5f81518084525f5b818110156110f8576020818501810151868301820152016110dc565b505f602082860101526020601f19601f83011685010191505092915050565b6001600160a01b0389168152610100602082018190525f9061113b8382018b6110d4565b9050828103604084015261114f818a6110d4565b60608401989098525050608081019490945260a084019290925260c0830152151560e0909101529392505050565b602080825282518282018190525f9190848201906040850190845b818110156111b457835183529284019291840191600101611198565b50909695505050505050565b5f80604083850312156111d1575f80fd5b50508035926020909101359150565b602080825282516001600160a01b031682820152820151610100604083018190525f91906112126101208501836110d4565b91506040850151601f1985840301606086015261122f83826110d4565b92505060608501516080850152608085015160a085015260a085015160c085015260c085015160e085015260e085015161126c8286018215159052565b5090949350505050565b634e487b7160e01b5f52601160045260245ffd5b80820281158282048414176112a1576112a1611276565b92915050565b5f826112c157634e487b7160e01b5f52601260045260245ffd5b500490565b808201808211156112a1576112a1611276565b5f602082840312156112e9575f80fd5b815180151581146110cd575f80fd5b5f6001820161130957611309611276565b5060010190565b634e487b7160e01b5f52604160045260245ffd5b600181811c9082168061133857607f821691505b60208210810361135657634e487b7160e01b5f52602260045260245ffd5b50919050565b601f8211156113a5575f81815260208120601f850160051c810160208610156113825750805b601f850160051c820191505b818110156113a15782815560010161138e565b5050505b505050565b815167ffffffffffffffff8111156113c4576113c4611310565b6113d8816113d28454611324565b8461135c565b602080601f83116001811461140b575f84156113f45750858301515b5f19600386901b1c1916600185901b1785556113a1565b5f85815260208120601f198616915b828110156114395788860151825594840194600190910190840161141a565b508582101561145657878501515f19600388901b60f8161c191681555b5050505050600190811b01905550565b81835281816020850137505f828201602090810191909152601f909101601f19169091010190565b60a081525f6114a160a08301898b611466565b82810360208401526114b481888a611466565b60408401969096525050606081019290925260809091015294935050505056fea264697066735822122051fe4bae5118dfadc337e4deb54b62b6d7ea23ee1cf74f50b34c79cb6ddce6d664736f6c63430008140033",
  "linkReferences": {},
  "deployedLinkReferences": {},
  "immutableReferences": {
    "522": [
      {
        "length": 32,
        "start": 340
      },
      {
        "length": 32,
        "start": 1089
      },
      {
        "length": 32,
        "start": 1326
      },
      {
        "length": 32,
        "start": 3356
      }
    ]
  },
  "inputSourceName": "project/contracts/RemitArc.sol",
  "buildInfoId": "solc-0_8_20-288a3ae55b329612aa6a45a162a2bbd0a79d94c7"
}